:100000000C9446000C9465000C9465000C946500FB
:100010000C9465000C9465000C9465000C946500CC
:100020000C9465000C9465000C9465000C946500BC
:100030000C9465000C940B010C9465000C94650005
:100040000C9465000C9465000C9465000C9465009C
:100050000C9465000C9465000C9465000C9465008C
:100060000C9465000C9465000C9465000C9465007C
:100070000C9465000C9465000C9465000C9465006C
:100080000C9465000C9465000C94650011241FBE4F
:10009000CFEFD0E4DEBFCDBF11E0A0E0B1E0EAEDEC
:1000A000F4E000E00BBF02C007900D92A630B1074C
:1000B000D9F721E0A6E0B1E001C01D92AE30B20751
:1000C000E1F70E944C020C946B020C94000040E09B
:1000D00050E00CC000002F5F3F4F02C020E030E036
:1000E000273063E03607B4F34F5F5F4F4817590777
:1000F000ACF308959BB19F7B9BB988B98BB18068A5
:100100008BB900008BB18F778BB982E090E00E94B1
:100110006700089581E00E947A000895813120F4FB
:1001200081580E947A00089581550E947A000895AE
:1001300084E690E00E94670088E30E947A0086E0EF
:100140000E947A008FE00E947A0081E00E947A008B
:100150008AE090E00E94670008959BB190649BB98B
:1001600088B98BB180688BB900008BB18F778BB960
:1001700081E090E00E9467000895EF92FF920F9354
:100180001F93CF93DF93182FEB010E948A000EC0BC
:1001900001E0010F812F0E948E007E018FEFE81A8F
:1001A000F80A88810E94AD00102FE7018881811133
:1001B000EFCFDF91CF911F910F91FF90EF900895B6
:1001C0008BE0809381008DE790E09093890080938D
:1001D000880082E080936F00109285001092840066
:1001E0008091000190910101A0910201B091030161
:1001F0008093060190930701A0930801B093090131
:100200008FB780688FBF089510928100089581E0B4
:1002100080930A0108951F920F920FB60F92112436
:100220000BB60F922F933F934F935F936F937F93F0
:100230008F939F93AF93BF93EF93FF9380910601AA
:1002400090910701A0910801B09109010197A109BE
:10025000B1098093060190930701A0930801B09320
:100260000901892B8A2B8B2B91F40E940701809125
:10027000000190910101A0910201B09103018093CE
:10028000060190930701A0930801B0930901FF9123
:10029000EF91BF91AF919F918F917F916F915F91FE
:1002A0004F913F912F910F900BBE0F900FBE0F906B
:1002B0001F901895609300017093010180930201D3
:1002C00090930301609306017093070180930801E6
:1002D00090930901089580910C0190910D01823055
:1002E000910509F445C028F4009769F00197C1F021
:1002F00098C08430910509F46FC008F466C0059772
:1003000009F471C08EC081E00E948E0080E30E94DB
:10031000AD0081E090E090930D0180930C0185C0C9
:10032000009907C083E090E090930D0180930C0149
:100330007CC0019907C084E090E090930D01809308
:100340000C0173C080B190E08095909583709927DF
:10035000039739F485E090E090930D0180930C01B0
:1003600064C081E090E090930D0180930C015DC02A
:1003700080B190E08095909583709927019741F026
:1003800080B190E08095909583709927029739F419
:1003900082E090E090930D0180930C0146C080B103
:1003A00090E08095909583709927039739F485E0C4
:1003B00090E090930D0180930C0137C081E090E0B4
:1003C00090930D0180930C0130C082E090E09093F7
:1003D0000D0180930C0129C082E090E090930D0103
:1003E00080930C0122C080B190E08095909583703D
:1003F0009927019741F080B190E0809590958370A6
:100400009927029739F485E090E090930D0180934D
:100410000C010BC081E090E090930D0180930C01E2
:1004200004C010920D0110920C0180910C0190916A
:100430000D0184309105A9F08530910511F10397E4
:1004400051F580910B01893018F48F5F80930B0177
:1004500081E00E948E0080910B01805D0E94AD00C2
:10046000089580910B01882319F0815080930B012E
:1004700081E00E948E0080910B01805D0E94AD00A2
:10048000089510920B0181E00E948E0080910B0173
:10049000805D0E94AD00089511B88FEF82B987B9D1
:1004A00018B88AB91BB80E94980061E070E080E03B
:1004B00090E00E945A010E94E00064E071E081E057
:1004C0000E94BD000E946B0180910A018823E1F324
:0A04D00010920A01F7CFF894FFCF55
:0604DA00010000006900B2
:00000001FF
