:100000000C944E000C946D000C946D000C946D00DB
:100010000C946D000C946D000C946D000C946D00AC
:100020000C946D000C946D000C946D000C946D009C
:100030000C946D000C9424010C946D000C946D00D4
:100040000C946D000C946D000C946D000C946D007C
:100050000C946D000C946D000C946D000C946D006C
:100060000C946D000C946D000C946D000C946D005C
:100070000C946D000C946D000C946D000C946D004C
:100080000C946D000C946D000C946D00900198011F
:10009000D101B501FA010A022502350211241FBE61
:1000A000CFEFD0E4DEBFCDBF11E0A0E0B1E0E6E8E5
:1000B000F5E000E00BBF02C007900D92A232B1073D
:1000C000D9F721E0A2E2B1E001C01D92AA32B20745
:1000D000E1F70E9493020C94C1020C94000040E0EE
:1000E00050E00CC000002F5F3F4F02C020E030E026
:1000F000273063E03607B4F34F5F5F4F4817590767
:10010000ACF308959BB19F7B9BB988B98BB1806894
:100110008BB900008BB18F778BB982E090E00E94A1
:100120006F00089581E00E9482000895813120F4DB
:1001300081580E948200089581550E94820008958E
:1001400084E690E00E946F0088E30E94820086E0CF
:100150000E9482008FE00E94820081E00E94820063
:100160008AE090E00E946F0008959BB190649BB973
:1001700088B98BB180688BB900008BB18F778BB950
:1001800081E090E00E946F000895EF92FF920F933C
:100190001F93CF93DF93182FEB010E9492000EC0A4
:1001A00001E0010F812F0E9496007E018FEFE81A77
:1001B000F80A88810E94B500102FE701888181111B
:1001C000EFCFDF91CF911F910F91FF90EF900895A6
:1001D000CF93C82F8A3019F48DE00E94E8008091F7
:1001E000C00085FFFCCFC093C60080E090E0CF91B7
:1001F00008958BE0809381008DE790E090938900D3
:100200008093880082E080936F00109285001092A6
:1002100084008091010190910201A0910301B091AD
:1002200004018093220190932301A0932401B093B1
:1002300025018FB780688FBF0895109281000895BF
:1002400081E08093260108951F920F920FB60F92BE
:1002500011240BB60F922F933F934F935F936F939D
:100260007F938F939F93AF93BF93EF93FF9380916F
:10027000220190912301A0912401B09125010197C1
:10028000A109B1098093220190932301A093240135
:10029000B0932501892B8A2B8B2B91F40E9420018E
:1002A0008091010190910201A0910301B09104019C
:1002B0008093220190932301A0932401B093250100
:1002C000FF91EF91BF91AF919F918F917F916F912E
:1002D0005F914F913F912F910F900BBE0F900FBEEA
:1002E0000F901F9018956093010170930201809305
:1002F0000301909304016093220170932301809382
:100300002401909325010895E0912701F09128019F
:10031000E830F10508F0B7C0EA5BFF4F0C94B80273
:1003200015B881E090E09093280180932701AFC039
:10033000009911C080910001882321F081508093A1
:10034000000102C01092000184E090E09093280127
:100350008093270106C082E090E09093280180936B
:10036000270181E08093290192C0009911C08091FA
:100370000001882321F081508093000102C0109277
:10038000000184E090E0909328018093270106C04B
:1003900082E090E090932801809327011092290138
:1003A00076C0009912C080910001893020F48F5FDF
:1003B0008093000103C089E08093000184E090E015
:1003C000909328018093270162C0809129018111B7
:1003D00007C081E090E0909328018093270157C0E7
:1003E000813009F054C083E090E09093280180931D
:1003F00027014DC0009907C084E090E09093280148
:100400008093270144C085E090E090932801809379
:1004100027013DC080910001893038F086E090E0EE
:10042000909328018093270132C0009907C087E08C
:1004300090E0909328018093270129C085E090E007
:10044000909328018093270122C0009907C087E07C
:1004500090E0909328018093270119C086E090E0F6
:10046000909328018093270112C0009907C087E06C
:1004700090E0909328018093270109C010922801F1
:100480001092270104C01092280110922701809138
:1004900027019091280182309105F1F028F400970E
:1004A00051F0019771F008958430910559F1F8F0F9
:1004B000069789F1089563E171E081E00E94C5002B
:1004C000089581E085B987E00E949600809100013F
:1004D000805D0E94B500089582E085B987E00E94A2
:1004E000960080910001805D0E94B500089584E02F
:1004F00085B987E00E94960080910001805D0E948E
:10050000B500089587E00E94960080910001805D0B
:100510000E94B50008956AE171E081E00E94C50083
:1005200010920001089511B88FEF82B984B915B8FF
:1005300087B918B88AB91BB80E94A00064E670E0B9
:1005400080E090E00E9473010E94F900109228015F
:100550001092270163E171E081E00E94C5000E94D2
:100560008401809126018823E1F310922601F7CFC0
:10057000EE0FFF1F0024001C0BBE0790F691E02D2C
:060580000994F894FFCF7E
:1005860005010000000000000200000000E8000075
:1005960000000053636F72653A0057494E4E45524C
:0205A600000053
:00000001FF
